:020000040800F2
:1000000030110020650B0008CB010008CD0100086D
:10001000D1010008D5010008D90100080000000046
:10002000000000000000000000000000DD010008EA
:10003000DF01000800000000E1010008E301000802
:100040007F0B00087F0B00087F0B00087F0B000868
:100050007F0B00087F0B00087F0B00087F0B000858
:100060007F0B00087F0B00087F0B00087F0B000848
:100070007F0B00087F0B00087F0B00087F0B000838
:100080007F0B00087F0B00087F0B00087F0B000828
:100090007F0B00087F0B00087F0B00087F0B000818
:1000A0007F0B00087F0B00087F0B00087F0B000808
:1000B0007F0B0008A90400087F0B00087F0B0008D5
:1000C0007F0B00087F0B00087F0B00087F0B0008E8
:1000D0007F0B0008070A0008450A00087F0B00088C
:1000E0007F0B00087F0B00087F0B00087F0B0008C8
:1000F0007F0B00087F0B00087F0B00087F0B0008B8
:100100007F0B00087F0B00087F0B00087F0B0008A7
:100110007F0B00087F0B00087F0B00087F0B000897
:100120007F0B00087F0B00087F0B00087F0B000887
:1001300000F002F800F03AF80AA090E8000C8244BF
:100140008344AAF10107DA4501D100F02FF8AFF29C
:10015000090EBAE80F0013F0010F18BFFB1A43F0A5
:1001600001031847CC3B0000EC3B0000103A24BFD1
:1001700078C878C1FAD8520724BF30C830C144BF0C
:1001800004680C607047000000230024002500264E
:10019000103A28BF78C1FBD8520728BF30C148BFEA
:1001A0000B6070471FB51FBD10B510BD02F0E3FD19
:1001B0001146FFF7F7FF02F02EFB02F001FE03B439
:1001C000FFF7F2FF03BC02F009FE704700BFFEE735
:1001D00000BFFEE700BFFEE700BFFEE770477047C5
:1001E000704770470CB50020019000906C48006883
:1001F00040F480306A49086000BF6948006800F434
:10020000003000900198401C0190009818B90198A6
:10021000B0F5A06FF1D16248006800F4003010B171
:100220000120009001E0002000900098012843D1B7
:100230005C48006840F010005A49086008460068B1
:1002400020F0030008600846006840F002000860E3
:10025000534840685249486008464068486008462C
:10026000406840F4806048600846406820F47C1094
:1002700048600846406840F4E81048600846006856
:1002800040F08070086000BF4548006800F00070D2
:100290000028F9D04248406820F0030040494860F7
:1002A0000846406840F00200486000BF3C48406893
:1002B00000F00C000828F9D10CBD10B5FFF792FF33
:1002C00010BD10B53648006840F0010034490860A0
:1002D000084640683449084031494860084600688B
:1002E000324908402E4908600846006820F4802002
:1002F00008600846406820F4FE0048604FF41F0084
:100300008860FFF7DAFF4FF000602949086010BDF0
:1003100010B5002100200022214B5B6803F00C0186
:1003200021B1042906D0082928D107E0214B224C0D
:10033000236027E01F4B204C236023E0184B5B68B1
:1003400003F47010164B5B6803F48032022303EB56
:10035000904022B9194B4343174C23600DE0104BDA
:100360005B6803F4003323B1144B4343124C236006
:1003700003E0104B4343104C236003E00D4B0E4C45
:10038000236000BF00BF064B5B68C3F303130C4C34
:10039000E15C094B1B68CB40074C236010BD00009B
:1003A00000100240002002400000FFF8FFFFF6FEB0
:1003B00008ED00E000127A000000002000093D0076
:1003C0000400002008B501211C2000F075FF012168
:1003D000084600F071FF0121454800F082FD102021
:1003E0008DF8030003208DF802004FF41840ADF89B
:1003F000000069463F4800F0A3FCBDF800103E48ED
:1004000000F04BFD4FF6F830ADF8000069463A4871
:1004100000F096FCBDF80010374800F03EFD4FF4A8
:100420004040ADF800006946344800F089FCBDF852
:100430000010324800F031FDF020ADF8000004203B
:100440008DF8030069462B4800F07AFC08BD7FB5A3
:1004500005460C460121022000F03BFFADF8085094
:10046000ADF804400020ADF80A00ADF8060001A97F
:10047000234801F05DFA01221146214801F0CFFD29
:100480001D208DF8000000208DF8010003208DF85C
:10049000020001208DF80300684600F088FB01216E
:1004A000174801F0A1FD7FBD10B516480068401C3B
:1004B000144908600121124802F05FF838B10121A7
:1004C0000F4802F06BF800F04DF900F01DF810BD78
:1004D00010B500F0DDFAFFF775FF4FF4165000F08D
:1004E0002FFA41F61F410920FFF7B1FF10BD0000B0
:1004F0000002300000080140000C014000100140E3
:10050000000400401400002070B500244AE004EB11
:10051000440000EB8410744901EB8000B0F808013E
:10052000002812DD04EB440000EB841001EB800096
:10053000B0F80801401E04EB440101EB84116A4A43
:1005400002EB8101A1F808012BE004EB440000EB71
:100550008410654911F82000012822D1022004EB03
:10056000440101EB8411604A02F8210004EB4403CA
:1005700003EB8413154605EB8303B3F8022104EB68
:10058000440303EB841305EB8303591CE0B200F032
:10059000ADF8002004EB440101EB84112A4602F877
:1005A0002100641C022CB2DB70BD70B506460D46FE
:1005B00006EB460000EB86104B4901EB800405205A
:1005C000A1F80A01207820B101281AD002282BD1E5
:1005D00029E00020A4F802014FF48071601C02F0B1
:1005E0007EFB01202070B4F80211601C4554B4F861
:1005F0000201401CA4F80201B4F80A01A4F80801A1
:1006000013E0B4F80201FF2808DCB4F80211601C02
:100610004554B4F80201401CA4F80201B4F80A01E0
:10062000A4F8080101E000E000BF00BF002070BD99
:1006300070B5054605EB450000EB85102A4901EB36
:100640008004B4F80401B4F8061188420CDAB4F856
:100650000421601C815C284600F05AF8B4F80401BB
:10066000401CA4F8040105E00021284600F05FF8D2
:1006700000202070002070BD2DE9F04106460F4695
:10068000154606EB460000EB8610174901EB800487
:10069000B5F5807F03DD4FF0FF30BDE8F08103202A
:1006A00020700121304600F042F82A463946601C8D
:1006B00002F09EFA0020A4F80401A4F80651304686
:1006C000FFF7B6FF0020E8E710B504462046FFF725
:1006D000AFFF002010BD70B504460D4629462046E8
:1006E000FFF763FF002070BD3C00002070B504469A
:1006F0000D46164624B900221146154800F066F84A
:10070000012C04D100221146124800F05FF870BDA0
:1007100070B504460D461CB929460F4800F06CFF21
:10072000012C03D129460D4800F066FF70BD70B55D
:1007300005460C465DB9012C04D10902084800F0B9
:10074000ACFB04E04FF48071054800F0A8FB70BDDD
:10075000552700083F2700080038014000440040AA
:100760000008014000200EE0464901EB00114968F5
:1007700041B1444901EB00114968491E414A02EB6D
:1007800000125160401C1428EEDB704701463D48C2
:1007900000EB0110006808B1012070470020FCE761
:1007A0000146384800EB01108068364A02EB01121E
:1007B0005060002070470146324800EB01100022D3
:1007C000026042608260C2600020704730B504461B
:1007D0000B461546002216E050B2FFF7D7FF88B946
:1007E000284800EB02104360264800EB02108360AB
:1007F000244800EB02100573224800EB021004604D
:1008000050B230BD521C142AE6DB4FF0FF30F8E73F
:1008100010B50446002309E01A4800EB03100068F5
:10082000A04202D158B2FFF7C6FF5B1C142BF3DBCA
:10083000002010BD10B500241FE060B2FFF7A6FF36
:10084000D0B1104800EB04104068A8B90D4901EB85
:100850000411086880470B4800EB0410007B40B18E
:10086000084800EB04108068064901EB0411486059
:1008700002E060B2FFF79FFF641C142CDDDB002058
:1008800010BD00005402002010B586B004460121BE
:10089000042000F011FD0121480400F01AFD04209D
:1008A000ADF8140003208DF8160018208DF81700FD
:1008B00005A9744800F044FA0820ADF8140004209B
:1008C0008DF8170005A96F4800F03AFA0121480495
:1008D00000F019FD00214FF4003000F014FD0194E8
:1008E0000020ADF80800ADF80A00ADF80C00ADF836
:1008F00010000C20ADF80E0001A9634800F083FD44
:1009000026208DF8000003208DF801008DF80200EC
:1009100001208DF80300684600F049F9012240F2F9
:100920002551594800F007FE012240F22661564841
:1009300000F001FE0121544800F0F1FD06B010BDA9
:1009400010B586B004462046FFF79EFF012144F211
:10095000040000F0B1FC4FF40070ADF81400032067
:100960008DF8160018208DF8170005A9454800F0ED
:10097000E7F94FF48060ADF8140004208DF81700FB
:1009800005A9404800F0DCF94FF48070ADF8140080
:1009900010208DF8170003208DF8160005A939489E
:1009A00000F0CEF925208DF8000003208DF801001D
:1009B0008DF8020001208DF80300684600F0F7F87A
:1009C00001940020ADF80800ADF80A00ADF80C0065
:1009D000ADF810000C20ADF80E0001A92B4800F076
:1009E00012FD012240F22661284800F0A4FD0122F8
:1009F00040F22551254800F09EFD0121234800F0DA
:100A00008EFD06B010BD10B540F225511F4800F014
:100A100077FE40B11D4800F0F3FDC4B2214600202E
:100A2000FFF759FE0DE040F22661184800F068FE1D
:100A300038B140F22661154800F08CFE0020FFF727
:100A400043FE10BD10B540F225510F4800F058FE8E
:100A500040B10D4800F0D4FDC4B221460120FFF79B
:100A60003AFE0DE040F22661074800F049FE38B139
:100A700040F22661044800F06DFE0120FFF724FEDD
:100A800010BD000000080140004400400038014053
:100A900010B56FF0040000F0D4F82E4800682E491D
:100AA000B0FBF1F02D4908700846007800EB4001DA
:100AB000C1EBC0104FF6FF7101EAC0002849088061
:100AC00010BD0146254A12784A434FF0E0235A618F
:100AD00000229A611A46126942F001021A6100BFAF
:100AE0004FF0E022106900F001021AB100F48032E8
:100AF000002AF5D04FF0E022126922F001024FF0F7
:100B0000E0231A6100229A6170470146144A128854
:100B10004A434FF0E0235A6100229A611A46126953
:100B200042F001021A6100BF4FF0E022106900F0AC
:100B300001021AB100F48032002AF5D04FF0E02211
:100B4000126922F001024FF0E0231A6100229A613B
:100B5000704700000000002000127A0018000020FA
:100B60001A0000200948804709480047FEE7FEE7D1
:100B7000FEE7FEE7FEE7FEE7FEE7FEE7FEE7FEE74D
:100B800004480549054A064B70470000C3020008A7
:100B900031010008300B002030110020300D002002
:100BA000300D002031490143314A1160704770B562
:100BB000002100230F22C47804B32D4C246804F4D0
:100BC000E064C4F5E064210AC1F10403CA4044783A
:100BD00004FA03F18478144021430901254C067876
:100BE000A155047804F01F050124AC4005786D116F
:100BF000AD0005F1E025C5F8004109E0047804F0F6
:100C00001F050124AC401C4D0678761145F826409E
:100C100070BD1A4A0A400243154B1B1F1A607047E9
:100C200039B1134A121D12680243114B1B1D1A6081
:100C300006E00F4A121D126882430D4B1B1D1A60FD
:100C40007047042808D14FF0E021096941F0040100
:100C50004FF0E022116107E04FF0E021096921F037
:100C600004014FF0E0221161704700000000FA0516
:100C70000CED00E000E400E080E100E080FFFF1FF9
:100C800010B50446CC48844208D10121042000F06C
:100C90002DFB0021042000F029FB46E0C7488442D8
:100CA00008D10121082000F021FB0021082000F0DC
:100CB0001DFB3AE0C248844208D10121102000F017
:100CC00015FB0021102000F011FB2EE0BD488442EE
:100CD00008D10121202000F009FB0021202000F094
:100CE00005FB22E0B848844208D10121402000F0F1
:100CF000FDFA0021402000F0F9FA16E0B3488442E2
:100D000008D10121802000F0F1FA0021802000F0BC
:100D1000EDFA0AE0AE48844207D10121801500F0C7
:100D2000E5FA0021A01500F0E1FA10BD10B501218F
:100D3000084600F0DBFA0021012000F0D7FA10BDD0
:100D40002DE9F04102460025002600200023002462
:100D5000002791F803C00CF00F0591F803C00CF0C8
:100D6000100CBCF1000F03D091F802C04CEA05054D
:100D700091F800C0BCF1000F31D0146800202BE0C6
:100D80004FF0010C0CFA00F3B1F800C00CEA0306B6
:100D90009E4220D183004FF00F0C0CFA03F7BC43A6
:100DA00005FA03FC4CEA040491F803C0BCF1280FD7
:100DB00006D14FF0010C0CFA00FCC2F814C00AE096
:100DC00091F803C0BCF1480F05D14FF0010C0CFAAB
:100DD00000FCC2F810C0401C0828D1D31460B1F840
:100DE00000C0BCF1FF0F34DD546800202EE000F19C
:100DF000080C4FF0010808FA0CF3B1F800C00CEA37
:100E000003069E4221D183004FF00F0C0CFA03F72A
:100E1000BC4305FA03FC4CEA040491F803C0BCF19E
:100E2000280F05D100F1080C08FA0CF8C2F814805C
:100E300091F803C0BCF1480F07D100F1080C4FF046
:100E4000010808FA0CF8C2F81080401C0828CED31C
:100E50005460BDE8F0814FF6FF710180022181707E
:100E60000421C17070470246002093680B400BB10B
:100E7000012000E0002070470146886880B270477A
:100E800002460020D3680B400BB1012000E0002097
:100E900070470146C86880B2704701617047416180
:100EA00070470AB1016100E041617047C16070475D
:100EB0004FF480320A438261816182618269826972
:100EC000704702460020434B18684FF68073184065
:100ED00040EA021008433F4B186070473E49C86122
:100EE0007047F0B50A46002300240021002500F0D9
:100EF0000046B6F1004F02D1364EF16901E0354EA1
:100F00007168C0F3034583B200F44016B6F5401F84
:100F100008D121F070612F4E766826F070662D4F53
:100F20007E6012E000F48016B6F5801F06D103261D
:100F300006FA05F4A14341F0706106E0460D360162
:100F400003FA06F6B14341F0706122B1460D360155
:100F500003FA06F6314300F00046B6F1004F02D125
:100F60001C4EF16101E01B4E7160F0BD30B50022F6
:100F70008B071C0F0F2303FA04F2164B08338C1057
:100F800053F824309343134C08348D1044F8253023
:100F900023468C1053F824308C07240F00FA04F4F5
:100FA00023430C4C08348D1044F8253030BD0A49D9
:100FB000DC3108607047000000080140000C01406F
:100FC000001001400014014000180140001C0140C5
:100FD000002001400000014000002042DF4800687E
:100FE00040F00100DD49086008464068DC490840DF
:100FF000DA49486008460068DA490840D74908607D
:101000000846006820F4802008600846406820F404
:10101000FE0048604FF41F0088607047CF490968A0
:1010200021F48031CD4A11601146096821F48021F4
:101030001160B0F5803F03D0B0F5802F0ED106E0EF
:10104000C649096841F48031C44A116007E0C349C8
:10105000096841F4A021C14A116000E000BF00BF4F
:10106000704710B501460022002300204A11012AD2
:1010700002D1BA4C236806E0022A02D1B74C236A97
:1010800001E0B64C636A01F01F02012494401C4049
:101090000CB1012000E0002010BD38B50020009008
:1010A0000024002500BF3120FFF7DBFF0546009834
:1010B000401C00900098B0F5A06F01D0002DF2D038
:1010C0003120FFF7CEFF08B1012400E000242046C4
:1010D00038BD01460020A14A106820F0F80040EA1F
:1010E000C10010607047A0490860704702460020A8
:1010F0009A4B586820F47C1042EA01031843974B3E
:101100005860704798490866704701460020934A26
:10111000506820F003000843506070478F484068D3
:1011200000F00C007047014600208C4A506820F007
:10113000F00008435060704701460020874A50681D
:1011400020F4E06008435060704701460020834A65
:10115000506820F4605040EAC1005060704729B1E7
:101160007E4A527A02437D4B5A7204E07B4A527A9D
:1011700082437A4B5A7270477B49D8310860704776
:1011800001460020754A506820F4404008435060F2
:1011900070470021714A20321170704A82F8201085
:1011A000012802D004280AD104E001216B4A203230
:1011B000117005E00521694A2032117000E000BF7E
:1011C00000BF70476949086070476449096A014374
:1011D000624A11627047654944390860704730B50A
:1011E00000210022002400235C4D6D6805F00C01F5
:1011F00021B1042905D0082923D105E05C4D056003
:1012000022E05B4D05601FE0544D6D6805F47012DF
:10121000524D6D6805F48034022505EB92421CB9ED
:10122000544D554305600BE04C4D6D6805F4003599
:101230001DB1504D5543056002E04D4D55430560CD
:1012400002E04B4D056000BF00BF444D6D6805F0E6
:10125000F0010909484D6B5C0568DD4045603F4D74
:101260006D6805F4E061090A434D6B5C4568DD403B
:1012700085603A4D6D6805F46051C90A3E4D6B5C5E
:101280004568DD40C560354D6D6805F44041890B0A
:101290003A4D6B5CC568B5FBF3F5056130BD29B10E
:1012A0002E4A526902432D4B5A6104E02B4A52697F
:1012B00082432A4B5A61704729B1284A92690243F6
:1012C000264B9A6104E0254A92698243234B9A6136
:1012D000704729B1214AD2690243204BDA6104E008
:1012E0001E4AD26982431D4BDA61704729B11B4AFD
:1012F000D2680243194BDA6004E0184AD26882438C
:10130000164BDA60704729B1144A12690243134B35
:101310001A6104E0114A12698243104B1A61704746
:1013200012494039086070470F49C86470470B493B
:10133000C87170470948406A40F0807007494862A8
:10134000704701460020054A92680A400AB1012010
:1013500000E0002070470149887270470010024089
:101360000000FFF8FFFFF6FE000042428004424208
:1013700000127A0000093D001C0000202C00002013
:1013800010B50446FB48844209D101218803FFF7C8
:10139000ADFF00214FF48040FFF7A8FF32E0F64890
:1013A000844209D101214804FFF7ADFF00214FF429
:1013B0000030FFF7A8FF25E0F048844209D1012161
:1013C0008804FFF7A0FF00214FF48020FFF79BFF68
:1013D00018E0EB48844209D10121C804FFF793FFCC
:1013E00000214FF40020FFF78EFF0BE0E548844218
:1013F00008D101210805FFF786FF00214FF4801076
:10140000FFF781FF10BD2DE9F04786B005460E4677
:101410000024A24600BFA1460027B08900B100BF4A
:101420002F462C8A4CF6FF700440F08804432C822F
:10143000AC894EF6F3100440B088318908437189B5
:1014400008430443AC81AC8A4FF6FF400440B089A6
:101450000443AC8201A8FFF7C2FEC648874202D10E
:10146000DDF810A001E0DDF80CA0A88900F4004030
:1014700040B10AEBCA0000EB0A1031684900B0FB2A
:10148000F1F807E00AEBCA0000EB0A1031688900A6
:10149000B0FBF1F86420B8FBF0F0040120096421EE
:1014A00001FB1089A88900F4004040B1322000EB14
:1014B000C900B0FBF1F000F00700044308E032205F
:1014C00000EB09106421B0FBF1F000F00F000443C1
:1014D0002C8106B0BDE8F0874FF416510160002161
:1014E0008180C18001810C2141810021818170476F
:1014F00010B502460020108A4FF2FF0318400B88F7
:101500004C8823438C882343CC8823431843108280
:1015100010BD0021018041808180C180704721B1D0
:10152000828942F40052828104E082894DF6FF7381
:101530001A4082817047F0B503460024002600253A
:10154000002040F66A17B94200D100BF1846C1F327
:10155000421401F01F06012707FA06F5012C01D1FC
:101560000C3004E0022C01D1103000E014301AB12C
:1015700007682F43076002E00768AF430760F0BDCC
:101580001AB1838A0B43838202E0838A8B4383826E
:101590007047028A4FF6F0731A400282028A0A43A9
:1015A0000282704782894FF2FF731A4082818289DA
:1015B0000A438281704721B1828942F0020282810E
:1015C00004E082894FF6FD731A4082817047028AD7
:1015D0004FF6DF731A400282028A0A430282704782
:1015E00021B1028A42F48042028204E0028A4BF670
:1015F000FF731A4002827047C1F30802828070476D
:1016000001468888C0F308007047818941F00101D4
:1016100081817047028BD2B20283028B42EA01229F
:1016200002837047028B02F47F420283028B0A43DB
:101630000283704721B1828A42F02002828204E054
:10164000828A4FF6DF731A408282704721B1828A04
:1016500042F01002828204E0828A4FF6EF731A4051
:101660008282704721B1828A42F00802828204E0BD
:10167000828A4FF6F7731A408282704721B18289BD
:1016800042F40042828103E08289C2F30E02828129
:10169000704721B1828A42F40062828204E0828A29
:1016A0004FF2FF731A4082827047828A4FF6FB73B3
:1016B0001A408282828A0A438282704721B1828ADA
:1016C00042F00202828204E0828A4FF6FD731A40E1
:1016D0008282704702460020B1F5007F00D100BF32
:1016E00013880B400BB1012000E00020704701F48B
:1016F0000072B2F5007F00D100BFCA43028070477C
:1017000070B50246002400230025002040F66A162A
:10171000B14200D100BFC1F3421501F01F03012601
:1017200006FA03F3012D02D19689334006E0022D1B
:1017300002D1168A334001E0968A33400C1201260A
:1017400006FA04F41688344013B10CB1012000E00D
:10175000002070BD10B50022002340F66A14A1429B
:1017600000D100BF0A1201249440A3B2DC430480DC
:1017700010BD000000380140004400400048004017
:10178000004C00400050004010B50446FE48844222
:1017900008D10121C014FFF7A9FD0021E014FFF7D3
:1017A000A5FDC4E0B4F1804F08D101210846FFF740
:1017B000AAFD00210120FFF7A6FDB8E0F34884420E
:1017C00008D101210220FFF79EFD00210220FFF732
:1017D0009AFDACE0EE48844208D101210420FFF7D5
:1017E00092FD00210420FFF78EFDA0E0E94884422D
:1017F00008D101210820FFF786FD00210820FFF70E
:1018000082FD94E0E448844208D101211020FFF7D2
:101810007AFD00211020FFF776FD88E0DF48844242
:1018200008D101212020FFF76EFD00212020FFF7C5
:101830006AFD7CE0DA48844208D101214014FFF7B8
:1018400055FD00216014FFF751FD70E0D54884423A
:1018500009D10121C804FFF749FD00214FF4002000
:10186000FFF744FD63E0D048844209D10121080517
:10187000FFF73CFD00214FF48010FFF737FD56E0E5
:10188000CA48844209D101214805FFF72FFD0021F4
:101890004FF40010FFF72AFD49E0C548844208D103
:1018A00001214020FFF72FFD00214020FFF72BFDF5
:1018B0003DE0C048844208D101218020FFF723FD8C
:1018C00000218020FFF71FFD31E0BB48844208D192
:1018D00001218015FFF717FD0021A015FFF713FD6B
:1018E00025E0B648844209D101210804FFF7FEFC37
:1018F00000214FF48030FFF7F9FC18E0B048844233
:1019000009D101214804FFF7F1FC00214FF4003018
:10191000FFF7ECFC0BE0AB48844208D101218804BE
:10192000FFF7E4FC00214FF48020FFF7DFFC10BD3F
:1019300000220288944B98420ED0994B98420BD0CB
:10194000B0F1804F08D0914B984205D0904B98420F
:1019500002D0904B984204D14FF68F731A404B88B7
:101960001A438D4B984207D08C4B984204D04FF6C7
:10197000FF431A40CB881A4302808B8883850B88EB
:101980000385814B98420BD0854B984208D08B4BF6
:10199000984205D08A4B984202D08A4B984201D196
:1019A0000B7A038601238382704770B500240022DE
:1019B0000023058C4FF6FE7635400584028C838823
:1019C000048B4FF68F752C40B51E2C400D882C4390
:1019D000751E2A400D892A434D882A436A4DA84224
:1019E0000BD06F4DA84208D0744DA84205D0744D5D
:1019F000A84202D0734DA84213D14FF6F7752A4082
:101A00004D892A434FF6FB752A408D882A434FF6AD
:101A1000FF652B404FF6FF552B408D892B43CD8919
:101A20002B4383800483CD888586028470BD70B586
:101A3000002400220023058C4FF6EF763540058404
:101A4000028C8388048B48F6FF752C404FF6FF45C7
:101A50002C400D884FF6FF7606EA05252C434FF6FD
:101A6000DF752A400D8906EA05152A434D8806EAE6
:101A700005152A43444DA84202D0494DA8421DD124
:101A80004FF67F752A404D894FF6FF7606EA051519
:101A90002A434FF6BF752A408D8806EA05152A436A
:101AA0004FF6FF352B404FF2FF752B408D8906EA2C
:101AB00085052B43CD8906EA85052B438380048366
:101AC000CD880587028470BD70B5002400220023F4
:101AD000058C4FF6FF6635400584028C8388848B25
:101AE0004FF68F752C404FF6FC752C400D882C431B
:101AF0004FF6FF552A400D894FF6FF7606EA052579
:101B00002A434D8806EA05252A431F4DA84202D0E4
:101B1000234DA8421DD14FF2FF752A404D894FF643
:101B2000FF7606EA05252A434FF6FF352A408D88C1
:101B300006EA05252A434EF6FF752B404DF6FF7544
:101B40002B408D8906EA05152B43CD8906EA05153C
:101B50002B4383808483CD888587028470BD70B5D4
:101B6000002200230024058C4EF6FF7635400584C4
:101B7000038C8488828B48F6FF752A404FF6FF4518
:101B80002A400D8820E00000002C014000040040A5
:101B900000080040000C004000100040001400400D
:101BA00000340140004C014000500140005401400D
:101BB00000180040001C0040002000400040014090
:101BC00000440140004801404FF6FF7606EA052533
:101BD0002A434DF6FF752B400D8906EA05352B4348
:101BE0004D8806EA05352B43FA4DA84202D0FA4D3E
:101BF000A84208D14BF6FF752C408D894FF6FF7631
:101C000006EA85152C4384808283CD88A0F8405055
:101C1000038470BD828B4FF2FF331A408283828B24
:101C20004FF6FF7303EA01231A4382837047F0B52E
:101C30000C461546002200210026078C4EF6FF7C3C
:101C400007EA0C070784828B018C4FF6FF7707EABF
:101C5000043640F6FF473A404FF6FF7707EA05277C
:101C60003A434FF6FF7707EA03373A43D94FB84272
:101C70000ED0D94FB8420BD0B0F1804F08D0D74F1B
:101C8000B84205D0D64FB84202D0D64FB84206D19E
:101C90004DF6FF77394046F48057394305E047F663
:101CA000FF57394044F48057394382830184F0BDA3
:101CB000828B4FF6F3731A408283828B0A438283AE
:101CC0007047F0B50C461546002200210026078C0F
:101CD0004FF6FF6C07EA0C070784828B018C4FF6E6
:101CE000FF7707EA04264FF60C773A404FF6FF7766
:101CF00007EA03172F433A43B64FB8420ED0B64F08
:101D0000B8420BD0B0F1804F08D0B44FB84205D0E4
:101D1000B34FB84202D0B34FB84206D14FF6FF5787
:101D2000394046F48077394305E04FF2FF57394098
:101D300044F48077394382830184F0BD028B4FF2F3
:101D4000FF331A400283028B4FF6FF7303EA01232D
:101D50001A4302837047F0B50C4615460022002155
:101D60000026078C4FF6EF7C07EA0C070784028BEE
:101D7000018C4FF6FF7707EA041640F6FF473A401A
:101D80004FF6FF7707EA03373A434FF6FF7707EA44
:101D900005273A438F4FB8420ED08F4FB8420BD031
:101DA000B0F1804F08D08D4FB84205D08C4FB8426B
:101DB00002D08C4FB84206D14FF6DF77394046F05B
:101DC0001007394305E04FF65F77394044F01007BC
:101DD000394302830184F0BD028B4FF6F3731A403E
:101DE0000283028B0A4302837047F0B50C46154606
:101DF00000220021068C4FF6FE773E400684028BBF
:101E0000018C4FF60C7632407E1C06EA03162E43F8
:101E10003243704EB0420ED06F4EB0420BD0B0F194
:101E2000804F08D06D4EB04205D06D4EB04202D00A
:101E30006C4EB04206D14FF6FD76314044F00106BB
:101E4000314305E04FF6F576314044F00106314369
:101E500002830184F0BD70B505460C465D4885429D
:101E60000ED05D4885420BD0B5F1804F08D05B485D
:101E7000854205D05A48854202D05A48854200D151
:101E800000E000BF208850B92389A28861882846D5
:101E9000FFF7ABFFE1882846FFF79EFF25E020888B
:101EA00004280AD12389A28861882846FFF753FFB6
:101EB000E1882846FFF742FF17E0208808280AD16A
:101EC0002389A28861882846FFF7FBFEE18828461F
:101ED000FFF7EEFE09E02389A28861882846FFF714
:101EE000A6FEE1882846FFF795FE70BD2DE9F0417A
:101EF00005460C4600260127608808B9022600E046
:101F00000026A088012801D1022700E001272088AF
:101F1000A0B92389A28861882846FFF766FFE18877
:101F20002846FFF759FF23893A4631462846FFF7EE
:101F300012FFE1882846FFF701FF13E02389A288FA
:101F400061882846FFF707FFE1882846FFF7F6FE7D
:101F500023893A4631462846FFF747FFE18828465D
:101F6000FFF73AFFBDE8F0810A884B881A438B8857
:101F70001A43CB881A430B891A434B891A438B891E
:101F80001A43A0F8442070474FF6FF71818000216A
:101F90000180C18041800172704700210180418031
:101FA0008180C180018141818181C181704700218F
:101FB00001804180012181800021C1800181704721
:101FC0000021018041808180C18001814181818126
:101FD00070470000002C0140003401400004004024
:101FE00000080040000C004021B1028842F00102CC
:101FF000028004E002884FF6FE731A4002807047A8
:1020000031B1B0F8442042F40042A0F8442005E089
:10201000B0F84420C2F30E02A0F8442070471AB171
:1020200083890B43838102E083898B4383817047DB
:102030008182704741EA0203A0F8483070471AB124
:1020400083890B43838102E083898B4383817047BB
:1020500001894FF6F8721140018170470A4600214C
:1020600001894FF68F73194011430181704730B5D4
:1020700004460D4629462046FFF7F0FF208940F030
:102080000700208130BD2DE9F04104460D4616467B
:102090001F46602D06D13B46012231462046FFF700
:1020A0005AFE05E03B46012231462046FFF79DFEE1
:1020B00029462046FFF7D2FF208940F00700208103
:1020C000BDE8F08130B50C4600210189C9B24FF658
:1020D000FF7505EA0325154325432943018130BDDA
:1020E0002DE9F04105460E46174698460024434622
:1020F0003A4631462846FFF7E5FF2C894FF6F8703F
:10210000044044F007044FF68F70044044F070041C
:102110002C81BDE8F081F0B504460D4616461F46F9
:102120003B46324629462046FFF7CCFF208940F443
:1021300080402081F0BD0185828270470A460021DF
:1021400001884FF68F731940114301807047F0B535
:102150000C4615461E460021002200230189028BF1
:10216000038C4FF6F877394021434FF6FC473A404D
:1021700040F201173A434FF6DD773B404FF6FF77C9
:1021800007EA06172F433B43018102830384F0BD16
:102190000A460021018B4FF68F73194011430183CA
:1021A00070470A460021018B48F6FF7319404FF62D
:1021B000FF7303EA02231943018370470A46002193
:1021C000818B4FF68F7319401143818370470A4604
:1021D0000021818B48F6FF7319404FF6FF7303EA25
:1021E000022319438183704721B1028842F08002A3
:1021F000028004E002884FF67F731A400280704725
:1022000021B1828842F00402828004E082884FF685
:10221000FB731A408280704721B1828842F0080225
:10222000828004E082884FF6F7731A4082807047FC
:1022300021B1828842F00102828004E082884FF658
:10224000FE731A40828070470A460021018B4FF6C8
:10225000F77319401143018370470A460021018B2F
:102260004FF2FF7319404FF6FF7303EA022319433D
:10227000018370470A460021818B4FF6F77319409E
:102280001143818370470A460021818B4FF2FF730F
:1022900019404FF6FF7303EA022319438183704705
:1022A0000A460021018B4FF6FB731940114301834D
:1022B00070470A460021018B4FF6FF3319404FF655
:1022C000FF7303EA02231943018370470A46002182
:1022D000818B4FF6FB7319401143818370470A4687
:1022E0000021818B4FF6FF3319404FF6FF7303EA4D
:1022F00002231943818370470A460021018B4FF660
:102300007F7319401143018370470A460021018BF6
:10231000C1F30E014FF6FF7303EA02231943018351
:1023200070470A460021818B4FF67F731940114395
:10233000818370470A460021818BC1F30E014FF65D
:10234000FF7303EA02231943818370470A46002181
:10235000018C4FF6FD7319401143018470470A4602
:102360000021018C4FF6F773194011430184704727
:102370000A460021018C4FF6DF7319404FF6FF73B8
:1023800003EA02131943018470470A460021018CB5
:102390004FF67F7319404FF6FF7303EA0213194398
:1023A000018470470A460021018C4FF6FF53194003
:1023B0004FF6FF7303EA02231943018470470A466C
:1023C0000021018C4FF2FF7319404FF6FF7303EAAF
:1023D00002231943018470470A460021018C4DF6FF
:1023E000FF7319404FF6FF7303EA02331943018468
:1023F000704730B5002301248C40A3B2048C9C4369
:102400000484048C02FA01F5ADB22C43048430BD7F
:1024100030B5002304248C40A3B2048C9C43048474
:10242000048C02FA01F5ADB22C43048430BD70B5C2
:102430000346002000241846183001258D40ACB218
:102440001D8CA5431D8409B1082909D100EB610049
:10245000056825F0700505600568154305600EE008
:102460000D1FC5F34E052844056825F4E0450560B9
:1024700005684FF6FF7606EA02263543056070BD13
:1024800021B1028842F00202028004E002884FF685
:10249000FD731A400280704721B1028842F00402A5
:1024A000028004E002884FF6FB731A4002807047F6
:1024B00021B1828842F08002828004E082884FF657
:1024C0007F731A408280704702884FF6F7731A4074
:1024D000028002880A430280704782884FF68F7319
:1024E0001A40828082880A438280704702894FF6B0
:1024F000F8731A40028102890A43028170470289F7
:102500004FF67F731A40028102890A4302817047A5
:102510008184704781857047818670470187704745
:1025200081877047A0F84010704702884FF6FF433C
:102530001A40028002880A43028070470146888E52
:1025400070470146088F70470146888F70470146E3
:10255000B1F8400070470146888C70470146088DED
:10256000704702460020138A0B400BB1012000E0A7
:1025700000207047CA430282704730B502460020EF
:1025800000230024158A05EA0103958905EA010460
:1025900013B10CB1012000E0002030BDCA4302821B
:1025A0007047000010B54F4BDB781BB9C343D8B25E
:1025B000CB43D9B2002214E000F001034A4C23605F
:1025C00001F00103494CC4F898310023464C241D06
:1025D00023600123454CC4F8A03140104910531C1E
:1025E000DAB2082AE8DB10BD2DE9F0413D48807CD5
:1025F00008B1BDE8F08100246FE000263949097870
:10260000384A527801FB02F000EBD0714D1000BF48
:1026100010E02F46EA1705EB927206EBA202344B4C
:1026200003EB0212115D1A4602EB0612105DFFF772
:10263000B9FF761CE91705EB9171B6EBA10FE8DB4A
:10264000002618E005EB4507FA1707EB927206EB38
:10265000A202274B03EB0212115D4FEA45084FEA35
:10266000E87208EB927206EBA20203EB0212105D15
:10267000FFF798FF761CE91705EB9171B6EBA10FF8
:10268000E0DB002018492031086001201749C1F81B
:10269000BC0104F0010014491C310860C4F340007F
:1026A000091F0860C4F3800012490860C4F3C00029
:1026B0000E49C1F88C010B4800790B4908310860BC
:1026C0004620FEF7FEF90748007908B9012000E02E
:1026D0000020054908310860641C102C8DD300BF10
:1026E00087E70000B40A00209C812142008021423B
:1026F00094030020BC01214210B559480068401CD9
:1027000057490860086800EBD0714910A0EB4101FF
:1027100051B94FF480415348FEF7C1FB4FF40041DB
:102720005048FEF7BAFB09E04FF480414D48FEF7F0
:10273000B4FB4FF400414B48FEF7B1FB10BD10B5A0
:102740004948B0F80E42224600F20D110020FDF774
:1027500093FF10BD10B54448B0F802412146401C1B
:1027600000F074F928B934223F49491C0020FDF7D4
:1027700083FF10BD00203D4908740846007C3C4999
:1027800009680844394908740846007C4006000E70
:1027900008740846007C3749D1F8141108443349BD
:1027A00008740846007C4006000E08740846007C49
:1027B0002F490831096808442C4908740846007CF0
:1027C0004006000E08740846007C29490C3109684F
:1027D00008442649087470472448C07C18B1012079
:1027E0002549086002E00020234908601F48007D59
:1027F00020B101202049091D086003E000201E4986
:10280000091D0860704710B500F0DBF8FFF7B2FF54
:10281000FFF7E2FF10BD88B0202218A1684600F043
:102820002CFAFDF755FE00F0EDF82021684600F087
:1028300094F801224FF4FA71AFF24310FDF7C6FF8E
:10284000012203211548FDF7C1FF01224FF47A71DF
:10285000AFF24D00FDF7BAFF01E0FDF7EBFFFCE73B
:1028600030000020001001403C000020B40A00208D
:102870001001214200002142AC812142BBB6BBB60F
:10288000BBB6BBB6D3ADD3ADD3ADD3ADB9E2B9E230
:10289000B9E2B9E2C1D9C1D9C1D9C1D9E925000884
:1028A00070B50546002460224E49284600F074F9B0
:1028B00000B970BD602229464A4800F099F94FF4EA
:1028C000C061494800F00BFA41E0002633E0285D82
:1028D00080280EDA4548805D295D88422AD1444A25
:1028E00002EB0611404A02EB0410102200F080F9BE
:1028F00025E03E48805D295D88421BD13B49701C24
:10290000095C601C285C814214D1394A02EB061133
:10291000354A02EB0410102200F06AF9344B721CA5
:1029200003EB0211304B621C03EB0210102200F08B
:102930005FF904E0761C2F4800688642C7D300BFC9
:10294000285D802801DA641C00E0A41C00BF285D1B
:1029500008B1602CB9DB00BFABE770B505460C468B
:10296000602C00DD70BD6021234800F0B8F92246DC
:102970002946214800F03CF92048006810B91E485B
:10298000FFF78EFF00BFEDE770B505460C46164613
:10299000602C00DD70BD6021194800F0A0F92246CE
:1029A0002946174800F024F914480660006818B159
:1029B0001348FFF775FF02E00F48FFF771FF00BFF4
:1029C000E8E710B50D48006840B10D48FFF768FF13
:1029D0000A480068401E0949086002E00648FFF7FF
:1029E0005FFF10BD9409002094030020EA2D000829
:1029F000CE2E000838000020F4090020340000200A
:102A0000540A002010200649087004204870012054
:102A1000C870002008710120C87408757047000054
:102A2000B40A0020014608784A7800EB022080B200
:102A3000704710B502460B460020002103E0545CAD
:102A40000444A0B2491C9942F9DB10BD2DE9F047BE
:102A500005460E462C462878A02803D04FF0FF30BC
:102A6000BDE8F087701E285C502802D04FF0FF3080
:102A7000F6E7342E02D24FF0FF30F1E7601CFFF78B
:102A8000D1FFB0F5806F02DD4FF0FF30E8E7301F77
:102A900081B22846FFF7CDFF311F6A5CF11E695CE9
:102AA00002EB0121884202D04FF0FF30D8E702222A
:102AB0003849E01C00F070F810B14FF0FF30CFE75C
:102AC000607B032821D14FF0000804F1100707F1C3
:102AD0001C00FFF7A7FF8046787E30B91FFA88F107
:102AE00005F13000FFF739FF0EE0787E80280BD12A
:102AF00007F11500FFF796FF81461FFA88F14A4655
:102B000005F13000FFF740FF2EE0607B042806D17E
:102B1000207C20491039C874607C087524E0607BF3
:102B2000232807D1102204F110011A48103800F0B0
:102B30005FF819E0607B242807D11022154910396D
:102B400004F1100000F054F80EE0607BA02808D1DA
:102B5000227C04F111010120FDF78EFD4FF0FF30C2
:102B60007EE74FF0FF307BE7AF202070002084F835
:102B7000320030212846FFF75CFF074684F83070AA
:102B8000C7F34701312001555F2084F8330000204E
:102B900066E70000C40A002040EA010310B59B0765
:102BA0000FD1042A0DD310C808C9121F9C42F8D0B7
:102BB00020BA19BA884201D9012010BD4FF0FF3068
:102BC00010BD1AB1D30703D0521C07E0002010BD7E
:102BD00010F8013B11F8014B1B1B07D110F8013B0A
:102BE00011F8014B1B1B01D1921EF1D1184610BDEB
:102BF000032A40F2308010F0030C00F0158011F829
:102C0000013BBCF1020F624498BF11F801CB00F800
:102C1000013B38BF11F8013BA2F1040298BF00F854
:102C200001CB38BF00F8013B11F0030300F0258011
:102C3000083AC0F0088051F8043B083A51F804CB38
:102C4000A0E80810F5E7121D5CBF51F8043B40F8FE
:102C5000043BAFF30080D20724BF11F8013B11F809
:102C600001CB48BF11F8012B24BF00F8013B00F84D
:102C700001CB48BF00F8012B704710B5203AC0F0D7
:102C80000B80B1E81850203AA0E81850B1E818506D
:102C9000A0E81850BFF4F5AF5FEA027C24BFB1E8AA
:102CA0001850A0E8185044BF18C918C0BDE810401B
:102CB0005FEA827C24BF51F8043B40F8043B08BF24
:102CC0007047D20728BF31F8023B48BF11F8012BEB
:102CD00028BF20F8023B48BF00F8012B70474FF097
:102CE00000020429C0F0128010F0030C00F01E80D6
:102CF000CCF1040CBCF1020F18BF00F8012BA8BFE7
:102D000020F8022BA1EB0C0100F010B85FEAC17CA7
:102D100024BF00F8012B00F8012B48BF00F8012B5D
:102D200070477047704770474FF0000200B5134678
:102D300094469646203922BFA0E80C50A0E80C50DB
:102D4000B1F12001BFF4F7AF090728BFA0E80C508C
:102D500048BF0CC05DF804EB890028BF40F8042B85
:102D600008BF704748BF20F8022B11F0804F18BFF2
:102D700000F8012B7047754600F02CF8AE460500B0
:102D80006946534620F00700854618B020B5FDF788
:102D9000F7FEBDE820404FF000064FF000074FF06F
:102DA00000084FF0000B21F00701AC46ACE8C00969
:102DB000ACE8C009ACE8C009ACE8C0098D46704772
:102DC00010B50446AFF300802046BDE81040FDF783
:102DD000F6B9000000487047CC0A002001491820CD
:102DE000ABBEFEE726000200704730313233343587
:102DF000363738394142434445464748494A4B4CA7
:102E00004D4E4F505152535455565758595ABEA9CA
:102E1000BDF2D4C1BBA6D5E3CBD5CFE6D3E5D4C6AE
:102E2000D4A5CDEEC9C2B9F0D0C2C7E0C7EDC3F694
:102E3000C3C9C1C9C4FEC2B3BDFABCAABCBDBADA1B
:102E4000B8CAB6F5B8D3B9F3B4A8B2D8C1D9CAB123
:102E5000B3B5C7EBC9D4BAF3C8A8CFDEB2BBD7E3CA
:102E6000D1CFC4A3CABDBBB6D3ADB9E2C3E2B7D11B
:102E7000D4C2D7E2BDC9D4AABADAC3FBB5A5B0B2F1
:102E8000B1A3CBF8B6A8C1AACFB5B9DCC0EDD4B117
:102E9000C0EBB3A1B3ACD2BBC2B7CBB3B7E7D0E8FA
:102EA000D7A3C4FAD3E0B6EEB2BBD7E3C6DAB9FD16
:102EB000D2D1CAA3CAB9D3C3CCECCDA8B5C0CEBBBE
:102EC000D5BCB4A2D0EEBFDBD2B5D6F7C2FA0000B3
:102ED00000182442424242424242241800000000AC
:102EE00000101C10101010101010107C00000000BA
:102EF000003C4242424020100804427E0000000094
:102F0000003C4242402018204042423C0000000069
:102F10000020303028242422FE2020F80000000069
:102F2000007E0202021E22404042221C00000000DD
:102F300000182402023A464242424438000000008F
:102F4000007E422020101008080808080000000039
:102F5000003C4242422418244242423C000000000D
:102F6000001C22424242625C4040241800000000E3
:102F7000000808181414243C224242E70000000014
:102F8000001F2222221E22424242221F0000000075
:102F9000007C4242010101010142221C00000000AC
:102FA000001F2242424242424242221F00000000D1
:102FB000003F4212121E12120242423F0000000065
:102FC000003F4212121E121202020207000000000D
:102FD000003C2222010101712122221C000000007C
:102FE00000E7424242427E42424242E70000000085
:102FF000003E0808080808080808083E000000000D
:10300000007C10101010101010101010110F000084
:10301000007722120A0E0A12122222770000000004
:1030200000070202020202020202427F00000000C8
:10303000007736363636362A2A2A2A6B00000000F8
:1030400000E346464A4A525252626247000000007C
:10305000001C2241414141414141221C000000002D
:10306000003F424242423E020202020700000000CC
:10307000001C224141414141414D321C6000000091
:10308000003F4242423E1212222242C7000000008C
:10309000007C4242020418204042423E00000000F0
:1030A000007F4908080808080808081C00000000FC
:1030B00000E74242424242424242423C000000009B
:1030C00000E74242222424141418080800000000DB
:1030D000006B2A2A2A2A2A3614141414000000002D
:1030E00000E7422424181818242442E700000000B6
:1030F00000772222141408080808081C00000000A9
:10310000007E2120101008040442423F000040804D
:10311000FF0000F8080808F880888884A2400000B2
:103120007F00000F0808080F00081020200000048E
:10313000C808E102D21008C80704E404040002022F
:103140001F127F121F02021F02023F02020240FCF6
:1031500094A4F4C4A494FC00FF08F8000000001F2D
:103160001412171112141F007F001F100A0400040C
:1031700008C8414242C84844474424241408010274
:10318000023F2020203F20000000000000004042BD
:103190004444F041424AC8744744444454A010385F
:1031A000060203027E1312121212121211101010D4
:1031B000FF105040FE404044442422100804040400
:1031C0007F0404000F0828484848080805024042C8
:1031D0004444F04142EA68544F44444444400000AF
:1031E0003E2222223E2223223E2222223E2200048E
:1031F0008848A112E22828E42724E424A420020518
:1032000008106F00232A2A2B2A2A2B222A1100FCBD
:1032100000000000FF402020100804FE0400001FF2
:10322000000000007F0000000204081F1010001FB3
:1032300090CAA488BF2414C404C40404C502011F96
:10324000107F48447F02452A192C2A490A0408089D
:10325000C45E32921212DE121212929E52200204A8
:103260007F40201F00007F09090948487000001EA8
:1032700012EA0A468A12F212168A824222120202C6
:10328000023F02120A027F050508081020400808C4
:1032900088083F08CC1C2A2A89080808C8080404A2
:1032A0003F0404047F0004043F0404047F0008106A
:1032B000FE004428FF1010FE1054921114880020C4
:1032C0001E0202027E1212121212121111108080BE
:1032D000FE80FC80FF00F808F808F80808080000E5
:1032E0003F001F007F000F080F080F080A040000AE
:1032F000DF0404849F848404849C47220000020429
:103300007F00003F20203F0414244444050204E8C9
:10331000008282F2929292F29282827A1202003FAC
:10332000202020272424242720242F28203010FF89
:1033300010FE02F100FE60DC209846304E80047FD3
:10334000047F4027003F00100D030519610000C4F1
:10335000080800000F08080808880814E200001F89
:103360000804020202020202020201007F00408001
:1033700080FE020100FC808080808080A0400000F0
:10338000007F4020001F000000000000000010F837
:1033900004FE85FC84FC00FF00F808F808F800072C
:1033A000041F101F101F007F000F080F080F00FEE2
:1033B00020242820FF00F80808F80808F808003F33
:1033C00002120A027F000F08080F08080F08808009
:1033D00080FF808080FC0000F8080808F8080000E2
:1033E000007F0000001F00000F0808080F08203EA3
:1033F000203827FC84FC84FC20FC20FF0804221ECB
:10340000427C001F101F101F021F027F081000FCCB
:103410008494A4FC8080FC8080FF00122221001F85
:103420001014121F00001F00007F00112222101034
:103430001010FE10101010F010101010F0100808EE
:1034400008087F080808080F080808080F0800EE99
:10345000AAAAEE00FE00FF04FC8080805020007CC1
:103460004424241424244544442C14040404087FD4
:1034700022947F803E22BE223E087F080888021EDA
:103480000B041A611F043F001F1115150A1180F863
:103490008888F880FF00F80888888840300E000F80
:1034A00008080F007F000F08080808061820080801
:1034B0000808080808080808080804040201202170
:1034C000212121212121212121212121202020FF11
:1034D0002000F80AEAAEE82FEAAAA9E40402027F73
:1034E00012247F0405242515150848556241101043
:1034F00010929252321292929292929090100101F6
:10350000017F020404003F242424243F2000000003
:103510003E22A222223E222222223E22000010101F
:1035200010107F10101011121210101014084040CB
:1035300040FE20908884FC8080FF80808080000096
:10354000003F000000001F00007F0000000000029C
:10355000E404C000E704C444C444D44C4440020220
:103560003F021F027F001F101F101F10140810B809
:103570000F0808BF888C9CAAAA8988888888042498
:103580002515043F20203F20203F20202810000048
:10359000F80808F8080808E828242422E120081F71
:1035A0000000007F0000001F101010101F1008C83E
:1035B0008888BF080C1C2A2A090808088868003F68
:1035C0002020201111110A0A04040A11204000DEF3
:1035D000524ACA464AD25252564A4242C242001F38
:1035E00010101F10101F22120C040811600000FEA2
:1035F00000008080C0A09088848281808080003F0D
:10360000010100000204081020200000000000F862
:1036100008080808F8808088888894A4C201000FF0
:10362000080808080F0000001F0000007F0000FECF
:1036300040485040FC040404040404020201003F1A
:1036400002120A027F0000000000000000008888CB
:10365000E8883FC84CDC6ACA09E808884828080896
:103660003F08001F101F101F023F050810600000D8
:103670000000FF00007C10101010F01E0400122249
:1036800022027F020202020204444850604000000D
:103690003F20A0925428081424A281402010010148
:1036A000013F201002020205050808102040000416
:1036B000C84840404F484848C8480814E200000144
:1036C0003C2424242424242D140404047F00808416
:1036D00088909080FF202020201010080403001004
:1036E000100804007F020202024242427C001010D5
:1036F000F00804FE858484FC4420100804030000C4
:103700000704021F1010101F11010141417E20FE0D
:1037100020FC24FC100804FA08888840300C021FA2
:10372000121F023F222A100F080808030C1000F88D
:10373000080808F8080808F8080804040201001F2F
:103740001010101F1010101F10101010140810B8B7
:103750008F8888BF888C9CAAAA898888E808001F5F
:103760001010101F1010101F101010107F00844434
:10377000E422EA2FE44482EF42C04C23A010101050
:10378000130A7B262B28282B2813122A2A4500FCF3
:10379000000000FF20202020101008040201001F5C
:1037A0000000007F02020202024242427C0000FC52
:1037B0008494A4FC8080FC8080FF00122221001FE2
:1037C0001014121F00001F00007F00112222404031
:1037D000E0102846408060F817101010F01000002C
:1037E0000F0804020100001F101010101F10081015
:1037F00020FC8484FC8484FC8080FF80808008041A
:10380000021F10101F10101F00007F0000004080DA
:10381000FC04424040FF201018608040300E000041
:103820003F201000007F040402020106081010D09F
:10383000504848CC0C0AE908884828180808001F96
:103840001010101F02023F070A12224202020888CB
:103850003C0402BD8888BF888888281888400424D2
:103860002515043F2024242424240A1120404080CC
:10387000FE020100FC80808888888894E2010000B4
:103880007F4020001F0000001F0000007F00003F5D
:1038900012129E12121ED212321E131090501112CA
:1038A0000A003F0404047F040A0A1111204000FCAE
:1038B000201008FC806018FE80908884A2401F00C1
:1038C000000402010008103F20040810200004FC3E
:1038D00012A180FE02F908F808F80808F808027E2C
:1038E0000910007F40270407000F08080F08008018
:1038F000BF88888888BE080888083807C200003F4B
:1039000024243F24243F04043F0404047F0000F8DF
:103910000808F800FC040484848440201807000F81
:1039200008080F001F1010101010030C102040800A
:10393000FF0028C828F880FE4222F222020200007E
:103940007F000A090A0F003F20222724281004C400
:103950000404049FC4848484445C27128040000FC4
:10396000040201003F242424242222211408109060
:10397000107E1010FF1014147414141AF201003F7A
:1039800022222229103F2121213F00007F00000038
:103990000000000000FF0000000000000000000028
:1039A00000000000007F0000000000000000003E5A
:1039B0002222A23E0808883A0A0A0A3A07000202AE
:1039C0001E110A040A11601F111111111F1120A2EA
:1039D0002A2AAAAAAAAAAAAAAAAA2A2AA160007F6F
:1039E00004023F202424242424220A11204000FC25
:1039F0000404142444448484444424120201000F27
:103A000008080A0A0909080809495252604000FCDE
:103A100080FE82B980B800FF40FC24242404001FEB
:103A2000007F402E000E007F001F1111150804C8F2
:103A3000485F5048C81C2A29088888482818003F31
:103A4000202020203F09090909484848700090902B
:103A5000884C2A998848288808408A8A09F00000FA
:103A60003F20120A1222220201002048480F8080C3
:103A700040201008F48380FC80888884A2400000E5
:103A8000010204081760001F000810202000081021
:103A9000FE820878442A102844FE45447C44007F76
:103AA00008043E222A2A2A2A2A2A1424424100FEF5
:103AB00000008080C0A09088848281808080003F48
:103AC000010100000204081020200000000000F89E
:103AD00008080808F8808088888894A4C201000F2C
:103AE000080808080F0000001F0000007F00444481
:103AF000FE44447C44447C4444FF20448241003ED4
:103B00002222223E2222223E2222212128100004AB
:103B100008E800004F88880808080814E200080830
:103B2000087F080808080808080A04007F0000FC4D
:103B30000000000404FC040404040404F800000F62
:103B400008080808080F0000002020203F00E01EA1
:103B500010FF5454D75456953854921110104040C9
:103B6000404148494849494948484041502008088F
:103B7000F80404E62625E404448404844434020260
:103B80007F02023F22223F02020201020C7000FC6F
:103B9000848484FC848484FC848484828201001F65
:103BA0001010101F1010101F10101010140800FC1F
:103BB00080808080FF804040202010080403001F88
:103BC000000000007F00010102020408106000E212
:103BD000048400E02724E42424E424242AF1001FA0
:103BE0000805023F22223F22223F222A107F4084E2
:103BF00008E800C04FC848C848C84814E200100888
:103C0000003F011F101F101F101F10007F00101019
:103C10001008E80C0C4A498888888808F8080102CE
:103C200002003F0010101008080804047F00808084
:103C3000808080808080FC0404040404FC04000074
:103C4000007F000000001F10101010101F10080847
:103C500018242486063D24A46424A46424040404B3
:103C60005F24147F04023F22223E22223E2210FFC4
:103C70001080FF10F8C030FC00FC84FC84FC047F42
:103C800004007F040308103F201F101F101F0808A6
:103C90008888BF8888A8988C8B8888888A040000C8
:103CA0003F202020202020202020203F20002020F6
:103CB000202022242428282820202020FF0002025F
:103CC0000202222212120A06020202027F00408031
:103CD00000FE80808080FC8080808080FF0000006B
:103CE000003F000000001F00000000007F008084F3
:103CF000E88801E20208E82427A4642424201010A4
:103D00007F10007F09097F49495662405020808416
:103D1000888880FE404040202010080402010000F6
:103D20000000001F10101112121010100A040000E1
:103D3000503D0008000000203C0000006C0100081D
:103D40008C3D00083C000020F410000088010008B1
:103D500000A24A0400000000000000000102030469
:103D60000607080900000000000000000000000035
:103D700001020304010203040607080902040608FD
:0C3D80000000000000000000E400000053
:0400000508000131BD
:00000001FF
